:020000040800F2
:100000004009002001010008290B00087F030008B7
:10001000250B00089F0100082F16000800000000B3
:10002000000000000000000000000000ED100008CB
:10003000A301000800000000B50F0008011200082D
:100040001B0100081B0100081B0100081B01000820
:100050001B0100081B0100081B0100081B01000810
:100060001B0100081B0100081B0100081B01000800
:100070001B0100081B0100081B0100081B010008F0
:100080001B0100081B0100081B0100081B010008E0
:100090001B0100081B0100081B0100081B010008D0
:1000A0001B0100081B0100081B0100081B010008C0
:1000B000B11200081B0100081B0100081B01000809
:1000C0001B0100081B0100081B0100081B010008A0
:1000D0001B0100080D1400081B0100081B0100088B
:1000E0001B0100081B0100081B010008DFF80CD0F1
:1000F00000F018F800480047BD160008400900202D
:100100000648804706480047FEE7FEE7FEE7FEE7B1
:10011000FEE7FEE7FEE7FEE7FEE7FEE70512000862
:10012000ED000008064C074D06E0E06840F00103D2
:1001300094E8070098471034AC42F6D3FFF7DAFF93
:10014000F41F00081420000870B58C1810F8015B2B
:1001500015F0070301D110F8013B2A1106D110F860
:10016000012B03E010F8016B01F8016B5B1EF9D164
:100170002B0705D40023521E0DD401F8013BFAE7EA
:1001800010F8013BCB1A921C03E013F8015B01F855
:10019000015B521EF9D5A142D8D3002070BD00BF2B
:1001A000FEE7704710B56FF0040001F015F80A483B
:1001B00000680A49B0FBF1F0094908700846007868
:1001C00000EB4001C1EBC0104FF6FF7101EAC00027
:1001D0000449088010BD00000000002000127A00D1
:1001E00036000020380000200146114A12884A4398
:1001F0004FF0E0235A6100229A611A46126942F0D8
:1002000001021A6100BF4FF0E022106900F0010204
:100210001AB100F48032002AF5D04FF0E0221269C2
:1002200022F001024FF0E0231A6100229A61704728
:100230003800002030B50446002505E04FF47A7000
:10024000FFF7D2FF681CC5B2A542F7D330BD2DE938
:10025000F04102460025002600200023002400274C
:1002600091F803C00CF00F0591F803C00CF0100CCE
:10027000BCF1000F03D091F802C04CEA050591F8DB
:1002800000C0BCF1000F31D0146800202BE04FF00B
:10029000010C0CFA00F3B1F800C00CEA03069E4210
:1002A00020D183004FF00F0C0CFA03F7BC4305FA82
:1002B00003FC4CEA040491F803C0BCF1280F06D1FA
:1002C0004FF0010C0CFA00FCC2F814C00AE091F8DF
:1002D00003C0BCF1480F05D14FF0010C0CFA00FC33
:1002E000C2F810C0401C0828D1D31460B1F800C077
:1002F000BCF1FF0F34DD546800202EE000F1080C43
:100300004FF0010808FA0CF3B1F800C00CEA03063C
:100310009E4221D183004FF00F0C0CFA03F7BC432F
:1003200005FA03FC4CEA040491F803C0BCF1280F61
:1003300005D100F1080C08FA0CF8C2F8148091F805
:1003400003C0BCF1480F07D100F1080C4FF00108C1
:1003500008FA0CF8C2F81080401C0828CED354606C
:10036000BDE8F0810246002093680B400BB10120EC
:1003700000E000207047416170470161704700BF95
:10038000FEE770B502460024002500230020958A70
:10039000138B1B0445EA030626F07F4404EA01069A
:1003A0008E4201D1012000E0002070BD21B1028801
:1003B00042F00102028004E002884FF6FE731A4008
:1003C0000280704700B585B00121480500F0F4FDBA
:1003D0000121082000F010FEC020ADF8000003202D
:1003E0008DF802001C208DF8030069461148FFF7C4
:1003F0002EFF114800F024F80020ADF808004BF65D
:10040000FF70ADF80A003020ADF80C004FF48060AA
:10041000ADF80E000001ADF8100008480190012170
:100420000548FFF7C3FF01A9034800F05BF805B0DA
:1004300000BD0000000C014000540040801A06007E
:1004400010B504460B48844209D10121480500F04B
:10045000C3FD00214FF4001000F0BEFD08E00121B3
:10046000880500F0B9FD00214FF4800000F0B4FDD4
:1004700010BD00000054004021B1028842F4807297
:10048000028004E002884FF6FF631A400280704742
:1004900021B1028842F40072028004E002884FF623
:1004A000FF531A40028070470CB50246002000231B
:1004B0000193009300920B0F019321F07F41019B68
:1004C0001BB1009B1433009303E0090C009B18330D
:1004D0000093009B1B680B400BB1012000E0002043
:1004E0000CBD00002DE9F04385B004460D46002602
:1004F000B1460427DFF8CC80A6884FF6C0700640CE
:10050000684600F089FDDDF808802F48B8FBF0F060
:100510001FFA80F946EA0906A68020884FF6FE7188
:100520000840208000262949286888420CD828687D
:100530004000B8FBF0F087B2042F00DA04273E43F6
:1005400009F10100208427E0E8884BF6FF7188421A
:1005500006D1286800EB4000B8FBF0F087B209E054
:10056000286800EBC00101EB0010B8FBF0F087B287
:1005700047F48047C7F30B0008B947F0010747F479
:10058000004006434FF4967009FB00F04FF47A7177
:1005900090FBF1F0401C2084A683208840F00100ED
:1005A000208026884FF6F5300640A88869890843E0
:1005B00006432680A88929890843208105B0BDE823
:1005C000F083000000127A0040420F00A086010074
:1005D00012B141F0010102E04FF6FE7319400182B1
:1005E000704701827047000070B504460D4600BF99
:1005F0004FF400311C48FFF757FF0028F8D10121C4
:100600001948FFF739FF00BF18491748FFF7B9FE2F
:100610000028F9D0002278211348FFF7D9FF00BF46
:1006200013491148FFF7ADFE0028F9D021460E48C6
:10063000FFF7D7FF00BF0E49891C0B48FFF7A1FE4B
:100640000028F8D029460848FFF7CBFF00BF08492B
:10065000891C0548FFF795FE0028F8D001210248C3
:10066000FFF716FF70BD00000054004001000300BA
:100670008200070008B50121102000F0BDFC4FF4F6
:100680008040ADF8000048208DF80300694602481C
:10069000FFF7DDFD08BD00000010014010B5074860
:1006A0000068012802D106A000F0D2FF03480068CC
:1006B000022802D105A000F0CBFF10BD3C000020B5
:1006C000707265737320310D0A00000070726573DB
:1006D0007320320D0A00000008B50121042000F04B
:1006E0008BFC0F20ADF8000003208DF802001020D5
:1006F0008DF8030069460C48FFF7A9FDF020ADF81E
:10070000000003208DF8020048208DF803006946A0
:100710000548FFF79CFD0F210348FFF72EFEF0214F
:100720000148FFF728FE08BD0008014010B501216F
:10073000EC48FFF717FE012828D10221E948FFF70E
:1007400011FE012822D10421E648FFF70BFE012803
:100750001CD10821E348FFF705FE012816D120210E
:10076000E048FFF7FFFD88B94021DE48FFF7FAFDBA
:1007700060B98021DB48FFF7F5FD38B91021D94871
:10078000FFF7F0FD10B90020D74908600121D548D6
:10079000FFF7F3FD0E21D348FFF7EDFD1021D148FF
:1007A000FFF7E0FD012811D12021CE48FFF7DAFD47
:1007B00060B94021CB48FFF7D5FD38B98021C94841
:1007C000FFF7D0FD10B90120C74908601021C548C6
:1007D000FFF7C8FD90B92021C248FFF7C3FD0128EB
:1007E0000CD14021BF48FFF7BDFD38B98021BD487D
:1007F000FFF7B8FD10B90220BB4908601021B948C5
:10080000FFF7B0FD90B92021B648FFF7ABFD68B9FE
:100810004021B448FFF7A6FD012807D18021B14847
:10082000FFF7A0FD10B90320AF4908601021AD48C3
:10083000FFF798FD90B92021AA48FFF793FD68B90A
:100840004021A848FFF78EFD40B98021A548FFF759
:1008500089FD012802D10420A34908600221A14892
:10086000FFF78BFD0D219F48FFF785FD10219D4867
:10087000FFF778FD012811D120219A48FFF772FD7A
:1008800060B940219748FFF76DFD38B98021954840
:10089000FFF768FD10B905209349086010219148C1
:1008A000FFF760FD90B920218E48FFF75BFD01281E
:1008B0000CD140218B48FFF755FD38B9802189487C
:1008C000FFF750FD10B906208749086010218548C0
:1008D000FFF748FD90B920218248FFF743FD68B932
:1008E00040218048FFF73EFD012807D180217D4847
:1008F000FFF738FD10B907207B49086010217948BF
:10090000FFF730FD90B920217648FFF72BFD68B93D
:1009100040217448FFF726FD40B980217148FFF758
:1009200021FD012802D108206F49086004216D488B
:10093000FFF723FD0B216B48FFF71DFD10216948D0
:10094000FFF710FD012811D120216648FFF70AFDAD
:1009500060B940216348FFF705FD38B9802161483F
:10096000FFF700FD10B909205F49086010215D48BC
:10097000FFF7F8FC90B920215A48FFF7F3FC012853
:100980000CD140215748FFF7EDFC38B9802155487C
:10099000FFF7E8FC10B90A205349086010215148BC
:1009A000FFF7E0FC90B920214E48FFF7DBFC68B967
:1009B00040214C48FFF7D6FC012807D18021494847
:1009C000FFF7D0FC10B90B204749086010214548BB
:1009D000FFF7C8FC90B920214248FFF7C3FC68B973
:1009E00040214048FFF7BEFC40B980213D48FFF759
:1009F000B9FC012802D10C203B4908600821394884
:100A0000FFF7BBFC07213748FFF7B5FC102135483D
:100A1000FFF7A8FC012811D120213248FFF7A2FCE2
:100A200060B940212F48FFF79DFC38B980212D483F
:100A3000FFF798FC10B90D202B49086010212948B8
:100A4000FFF790FC90B920212648FFF78BFC012886
:100A50000CD140212348FFF785FC38B9802121487B
:100A6000FFF780FC10B90E201F49086010211D48B7
:100A7000FFF778FC90B920211A48FFF773FC68B99A
:100A800040211848FFF76EFC012807D18021154846
:100A9000FFF768FC10B90F201349086010211148B6
:100AA000FFF760FC90B920210E48FFF75BFC68B9A6
:100AB00040210C48FFF756FC40B980210948FFF758
:100AC00051FC012802D11020074908600F21054878
:100AD000FFF753FCF0210348FFF74DFC0248006884
:100AE00010BD0000000801403C00002008B50121B5
:100AF000102000F081FA4FF40050ADF800001020F3
:100B00008DF8030003208DF8020069460448FFF7C2
:100B10009EFB4FF400510248FFF72FFC08BD000078
:100B20000010014000BFFEE7704710B54FF4A06011
:100B300000F03AF810BD000070B5002100230F222C
:100B4000C47804B3154C246804F4E064C4F5E0648C
:100B5000210AC1F10403CA40447804FA03F18478FD
:100B60001440214309010E4C0678A155047804F085
:100B70001F050124AC4005786D11AD0005F1E0259D
:100B8000C5F8004109E0047804F01F050124AC40D9
:100B9000044D0678761145F8264070BD0CED00E056
:100BA00000E400E080E100E002490143024A1160F4
:100BB000704700000000FA050CED00E010B50020C1
:100BC00000F03BF810BD2DE9F05F06460F46904659
:100BD0001C46DDF828A04FF0000BE11704EB517123
:100BE000C910A4EBC10131B92046E11704EB5171E2
:100BF000C1F3C70506E02046E11704EB5171C910A7
:100C0000491CCDB23D4614E02946304600F0D6F8E6
:100C1000B1460AE059460BF1010B1AF8010000F049
:100C20000FFD09F1010000F0FF09C145F2DB681C6E
:100C3000C5B2A542E8DBBDE8F09F70B506460024CA
:100C400015E004F1B001C8B200F0F3FC002000F0A0
:100C5000F0FC102000F0EDFC002504E0304600F030
:100C6000EFFC681CC5B2802DF8DB601CC4B2082CF8
:100C7000E7DB70BD30B50246062000240C540EE0C0
:100C8000441EE0B20A2492FBF4F504FB1524E3B2FF
:100C90000A2492FBF4F4A2B203F130040C540028AD
:100CA000EED130BD10B56420FFF79EFAAE2000F003
:100CB000C0FC202000F0BDFC102000F0BAFCB020E9
:100CC00000F0B7FCC82000F0B4FC002000F0B1FC3C
:100CD000102000F0AEFC402000F0ABFC812000F0C2
:100CE000A8FCFF2000F0A5FCA12000F0A2FCA6209B
:100CF00000F09FFCA82000F09CFC3F2000F099FC35
:100D0000A42000F096FCD32000F093FC002000F01B
:100D100090FCD52000F08DFCF02000F08AFCD9205A
:100D200000F087FC222000F084FCDA2000F081FC37
:100D3000122000F07EFCDB2000F07BFC202000F085
:100D400078FC8D2000F075FC142000F072FCAF20C0
:100D500000F06FFC10BD00002DE9FC4106460F4677
:100D60001446002C08DA604204B2012311A239466D
:100D7000304600F061F805E001230FA23946304605
:100D800000F05AF8B01DC6B2A0B26946FFF772FF74
:100D90000DF1010508E001232A463946304600F0EE
:100DA0004BF8B01DC6B26D1C28780028F3D1BDE801
:100DB000FC8100002D0000002000000070B50446FA
:100DC0000D4605F1B001C8B200F033FC102141EA34
:100DD000141000F02EFC04F00F0141F0010000F0AF
:100DE00028FC70BD2DE9F04180460E4617460024D0
:100DF0007D0131464046FFF7E1FF00BF06E00D49A7
:100E0000485D00F01DFC6D1C601CC4B2102CF6DBAC
:100E1000701CC1B24046FFF7D1FF002406E005492F
:100E2000485D00F00DFC6D1C601CC4B2102CF6DB9C
:100E3000BDE8F081400000202DE9F04706468946D4
:100E400017469A464FF0000800240025BAF1010F1A
:100E500003D0BAF1020F5ED125E020E0785D2038A2
:100E600000F0FF087E2E04DD002609F1010000F0ED
:100E7000FF0949463046FFF7A1FF002409E008EBCF
:100E80004801264A02EB4101085D00F0D9FB601CD5
:100E9000C4B2062CF3DBB01DC6B2681CC5B2785DC7
:100EA0000028DBD137E032E0785D203800F0FF0821
:100EB000782E04DD002609F1010000F0FF09494603
:100EC0003046FFF77BFF002407E004EB0811144ACB
:100ED000505C00F0B5FB601CC4B2082CF5DB09F1D6
:100EE0000100C1B23046FFF769FF002408E004EBBF
:100EF000081108310A4A505C00F0A2FB601CC4B221
:100F0000082CF4DB06F10800C6B2681CC5B2785D97
:100F10000028C9D100BF00BFBDE8F087DC1700087A
:100F2000041A000838B51A480823802200210090CE
:100F30000846FFF748FE0120FFF77CF9FFF73EFE69
:100F4000002409E0E2B2102101EB0411C8B2002133
:100F5000FFF748FF601C04B2062CF3DB4FF4FA7075
:100F6000FFF742F902230BA203212020FFF764FFC1
:100F70004FF4FA70FFF738F9012308A20721002087
:100F8000FFF75AFF0220FFF755F9FFF717FE38BDAC
:100F90000001002048656C6C6F00000057656C63B1
:100FA0006F6D6520746F204C55545F45444120217E
:100FB000000000007047000029B1064AD2690243D0
:100FC000044BDA6104E0034AD2698243014BDA61DF
:100FD000704700000010024029B1064A126902431E
:100FE000044B1A6104E0034A12698243014B1A61FF
:100FF000704700000010024029B1064A926902437E
:10100000044B9A6104E0034A92698243014B9A615E
:10101000704700000010024030B50021002200247B
:1010200000232D4D6D6805F00C0121B1042905D078
:10103000082923D105E0294D056022E0274D0560F0
:101040001FE0254D6D6805F47012234D6D6805F4A1
:101050008034022505EB92421CB9214D55430560B1
:101060000BE01D4D6D6805F400351DB11C4D554359
:10107000056002E0194D5543056002E0174D05601B
:1010800000BF00BF144D6D6805F0F0010909154D52
:101090006B5C0568DD4045600F4D6D6805F4E061EF
:1010A000090A104D6B5C4568DD4085600A4D6D682E
:1010B00005F46051C90A0B4D6B5C4568DD40C560A5
:1010C000054D6D6805F44041890B074D6B5CC568A3
:1010D000B5FBF3F5056130BD0010024000127A0047
:1010E00000093D001400002024000020704710B5C6
:1010F00000F002F810BD00000CB500200190009037
:101100003348006840F480303149086000BF3048FF
:10111000006800F4003000900198401C0190009895
:1011200018B90198B0F5A06FF1D12948006800F412
:10113000003010B10120009001E0002000900098E4
:10114000012843D12348006840F01000214908607D
:101150000846006820F0030008600846006840F078
:10116000020008601A48406819494860084640680B
:1011700048600846406840F480604860084640681F
:1011800020F47C1048600846406840F4E81048604D
:101190000846006840F08070086000BF0C48006896
:1011A00000F000700028F9D00948406820F00300E2
:1011B000074948600846406840F00200486000BFA8
:1011C0000348406800F00C000828F9D10CBD00006D
:1011D0000010024000200240042808D14FF0E02116
:1011E000096941F004014FF0E022116107E04FF07E
:1011F000E021096921F004014FF0E02211617047FC
:101200007047000010B51348006840F00100114914
:10121000086008464068104908400E494860084682
:1012200000680E4908400B4908600846006820F431
:10123000802008600846406820F4FE0048604FF4B3
:101240001F008860FFF753FF4FF0006004490860FB
:1012500010BD0000001002400000FFF8FFFFF6FE86
:1012600008ED00E00EB501210846FFF7A5FE4FF49A
:101270007A70ADF804004720ADF800000020ADF80A
:10128000020069464FF0804000F06EF801218807A7
:1012900000F03DF801221146900700F05BF80121B3
:1012A000880700F03AF800210120FFF785FE0EBD07
:1012B00010B50121880700F03CF870B107480068BC
:1012C000401C06490860FFF731FA05490870FFF72E
:1012D000E5F90121880700F01DF810BD2800002065
:1012E0002C00002008B54FF4E060FFF75DFC1C20E7
:1012F0008DF8000000208DF8010003208DF8020019
:1013000001208DF803006846FFF716FC08BDCA43AC
:1013100002827047CA430282704721B1028842F0BC
:101320000102028004E002884FF6FE731A40028038
:10133000704730B50246002000230024158A05EAD4
:101340000103958905EA010413B10CB1012000E005
:10135000002030BD1AB183890B43838102E0838969
:101360008B43838170470000002202881D4B984206
:101370000ED01D4B98420BD0B0F1804F08D01B4BC4
:10138000984205D01A4B984202D01A4B984204D189
:101390004FF68F731A404B881A43174B984207D069
:1013A000164B984204D04FF6FF431A40CB881A439D
:1013B00002808B8883850B8803850A4B98420BD06B
:1013C000094B984208D00E4B984205D00D4B9842DD
:1013D00002D00D4B984201D10B7A03860123838200
:1013E00070470000002C0140003401400004004020
:1013F00000080040000C00400010004000140040B5
:1014000000400140004401400048014010B540F256
:1014100025511D4800F04AF810B31B4800F002F9AE
:10142000C4B21A48007800F08000C8B917480078A4
:1014300000F0400060B10A2C03D00020134908706E
:1014400020E01248007840F080001049087019E050
:101450000D2C06D10D48007840F040000B49087073
:1014600010E00A48007800F03F0009490C54074892
:101470000078401C05490870084600783F2801DDC7
:101480000020087010BD000000380140340000202A
:101490000005002021B1828942F40052828104E0DB
:1014A00082894DF6FF731A408281704770B50246FB
:1014B000002400230025002040F66A16B14200D126
:1014C00000BFC1F3421501F01F03012606FA03F322
:1014D000012D02D19689334006E0022D02D1168AF1
:1014E000334001E0968A33400C12012606FA04F4D8
:1014F0001688344013B10CB1012000E0002070BD0B
:10150000F0B50346002400260025002040F66A17A7
:10151000B94200D100BF1846C1F3421401F01F06C2
:10152000012707FA06F5012C01D10C3004E0022C4A
:1015300001D1103000E014301AB107682F43076062
:1015400002E00768AF430760F0BD00002DE9F047F7
:1015500086B005460E460024A24600BFA1460027DD
:10156000B08900B100BF2F462C8A4CF6FF700440B2
:10157000F08804432C82AC894EF6F3100440B08806
:1015800031890843718908430443AC81AC8A4FF622
:10159000FF400440B0890443AC8201A8FFF73CFD42
:1015A0001F48874202D1DDF810A001E0DDF80CA051
:1015B000A88900F4004040B10AEBCA0000EB0A1011
:1015C00031684900B0FBF1F807E00AEBCA0000EB14
:1015D0000A1031688900B0FBF1F86420B8FBF0F024
:1015E00004012009642101FB1089A88900F400404E
:1015F00040B1322000EBC900B0FBF1F000F0070071
:10160000044308E0322000EB09106421B0FBF1F044
:1016100000F00F0004432C8106B0BDE8F087000005
:101620000038014001468888C0F30800704700BFB9
:10163000FEE710B5044621460020FEF7D5FF10BD99
:1016400010B5044621464020FEF7CEFF10BD000035
:10165000014A024900F013B8A1160008300000202A
:1016600002E008C8121F08C1002AFAD1704770476B
:10167000002001E001C1121F002AFBD170472DE9B3
:10168000F04116460F460446002503E03946B047B0
:10169000641C6D1C20780028F8D12846BDE8F08134
:1016A00000BF054A128802F04002002AF9D0C2B2F7
:1016B000014B1B1D1A80704700380140FEF772FD78
:1016C000FFF733FAFFF70EFEFFF7CCFD4FF4E130E2
:1016D00000F034F80DA0FFF7BBFFFFF707FAFEF7A5
:1016E000C9FFFEF7F9FFFEF76DFEFFF7DBFAFFF724
:1016F00019FC01210846FFF75FFC05E00E4802785F
:1017000007212020FFF728FBF8E700002A2A2A2AD1
:101710002A2A2A2A2A2A2A2A2AB4AEBFDAB2E2CAF6
:10172000D4D5FDB3A3212A2A2A2A2A2A2A2A2A2AF8
:101730002A2A2A0D0A0000002C00002010B586B0CD
:101740000446012144F20500FFF756FC4FF40070F7
:10175000ADF8140003208DF8160018208DF817003E
:1017600005A91C48FEF773FD4FF48060ADF8140026
:1017700004208DF8170005A91648FEF768FD2520FE
:101780008DF8000003208DF801008DF80200012083
:101790008DF803006846FFF7CFF901940020ADF8FB
:1017A0000800ADF80A00ADF80C00ADF810000C20F0
:1017B000ADF80E0001A90848FFF7C8FE012240F26B
:1017C00025510548FFF79CFE01210348FFF762FE03
:1017D00006B010BD000801400038014000000000C4
:1017E00000000000002F00000000070007000014A8
:1017F0007F147F1400242A7F2A12006264081323B6
:1018000000364955225000000503000000001C224C
:101810004100000041221C000014083E081400088A
:10182000083E0808000000A060000008080808083A
:10183000000060600000002010080402003E5149D2
:10184000453E0000427F4000004261514946002170
:1018500041454B31001814127F100027454545398A
:10186000003C4A49493000017109050300364949E5
:10187000493600064949291E00003636000000009E
:1018800056360000000814224100001414141414E9
:101890000000412214080002015109060032495992
:1018A000513E007C1211127C007F49494936003EAE
:1018B00041414122007F4141221C007F4949494169
:1018C000007F09090901003E4149497A007F080863
:1018D000087F0000417F4100002040413F01007F20
:1018E00008142241007F40404040007F020C027FEC
:1018F000007F0408107F003E4141413E007F0909FE
:101900000906003E4151215E007F09192946004623
:10191000494949310001017F0101003F4040403FFA
:10192000001F2040201F003F4038403F0063140844
:10193000146300070870080700615149454300001F
:101940007F41410000552A552A55000041417F0042
:101950000004020102040040404040400000010237
:101960000400002054545478007F48444438003820
:101970004444442000384444487F003854545418A8
:1019800000087E0901020018A4A4A47C007F0804BA
:1019900004780000447D4000004080847D00007F8A
:1019A000102844000000417F4000007C04180478A7
:1019B000007C0804047800384444443800FC2424A3
:1019C00024180018242418FC007C0804040800488B
:1019D0005454542000043F444020003C4040207CAC
:1019E000001C2040201C003C4030403C004428109B
:1019F0002844001CA0A0A07C004464544C4414144F
:101A00001414141400000000000000000000000086
:101A100000000000000000F800000000000000339B
:101A20003000000000100C06100C06000000000042
:101A30000000000040C07840C0784000043F04042B
:101A40003F040400007088FC08300000001820FFEC
:101A5000211E0000F008F000E018000000211C0327
:101A60001E211E0000F00888700000001E212324A3
:101A70001927211010160E000000000000000000C1
:101A800000000000000000E0180402000000000751
:101A90001820400000020418E00000000040201858
:101AA00007000000404080F0804040000202010F2B
:101AB00001020200000000F0000000000101011F0F
:101AC00001010100000000000000000080B0700073
:101AD0000000000000000000000000000001010103
:101AE0000101010100000000000000000030300092
:101AF000000000000000000080601804006018066C
:101B00000100000000E010080810E000000F1020A5
:101B100020100F00001010F8000000000020203FEF
:101B20002020000000700808088870000030282479
:101B3000222130000030088888483000001820201A
:101B400020110E000000C02010F80000000704243F
:101B5000243F240000F80888880808000019212084
:101B600020110E0000E0108888180000000F1120DE
:101B700020110E0000380808C83808000000003F97
:101B8000000000000070880808887000001C2221F6
:101B900021221C0000E010080810E00000003122A3
:101BA00022110F00000000C0C00000000000003043
:101BB0003000000000000080000000000000806095
:101BC0000000000000008040201008000001020416
:101BD00008102000404040404040400004040404FD
:101BE00004040400000810204080000000201008B9
:101BF00004020100007048080808F00000000030EE
:101C000036010000C030C828E810E000071827247B
:101C100023140B000000C038E0000000203C230229
:101C20000227382008F8888888700000203F20208C
:101C300020110E00C03008080808380007182020BE
:101C40002010080008F808080810E000203F2020B5
:101C500020100F0008F88888E8081000203F202096
:101C60002320180008F88888E8081000203F20008A
:101C700003000000C03008080838000007182020C2
:101C8000221E020008F808000008F808203F210181
:101C900001213F20000808F8080800000020203F2C
:101CA0002020000000000808F8080800C08080809C
:101CB0007F00000008F888C028180800203F200195
:101CC0002638200008F8080000000000203F2020EF
:101CD0002020300008F8F800F8F80800203F003F06
:101CE000003F200008F830C00008F808203F20001E
:101CF00007183F00E01008080810E0000F1020202F
:101D000020100F0008F808080808F000203F210103
:101D100001010000E01008080810E0000F1824245A
:101D200038504F0008F8888888887000203F2000CD
:101D3000030C302000708808080838000038202183
:101D400021221C00180808F8080818000000203F8D
:101D50002000000008F808000008F808001F2020F4
:101D600020201F000878880000C8380800000738C5
:101D70000E010000F80800F80008F800033C070016
:101D8000073C0300081868808068180820302C037E
:101D9000032C30200838C800C83808000000203F55
:101DA0002000000010080808C83808002038262144
:101DB00020201800000000FE020202000000007F48
:101DC00040404000000C30C0000000000000000156
:101DD0000638C00000020202FE0000000040404041
:101DE0007F00000000000402020204000000000066
:101DF00000000000000000000000000080808080E3
:101E000080808080000202040000000000000000CA
:101E10000000000000008080808000000019242263
:101E200022223F2008F8008080000000003F11209F
:101E300020110E000000008080800000000E1120A4
:101E400020201100000000808088F800000E112082
:101E500020103F200000808080800000001F222290
:101E600022221300008080F0888888180020203FFC
:101E7000202000000000808080808000006B94940F
:101E80009493600008F8008080800000203F2100CB
:101E900000203F2000809898000000000020203F94
:101EA00020200000000000809898000000C0808082
:101EB000807F000008F8000080808000203F24021E
:101EC0002D302000000808F8000000000020203F0E
:101ED000202000008080808080808000203F2000C3
:101EE0003F20003F8080008080800000203F210054
:101EF00000203F200000808080800000001F202004
:101F000020201F00808000808000000080FFA12032
:101F100020110E000000008080808000000E112043
:101F200020A0FF80808080008080800020203F21D2
:101F30002000010000008080808080000033242485
:101F400024241900008080E0808000000000001F31
:101F5000202000008080000000808000001F2020E2
:101F600020103F20808080000080808000010E30A3
:101F70000806010080800080008080800F300C0304
:101F80000C300F0000808000808080000020312E07
:101F90000E312000808080000080808080818E70E3
:101FA0001806010000808080808080000021302C95
:101FB0002221300000000000807C020200000000AE
:101FC000003F404000000000FF0000000000000053
:101FD000FF0000000002027C800000000040403F43
:101FE00000000000000601010202040400000000DD
:101FF0000000000014200008000000200005000080
:1020000048010008A4210008000500204004000049
:10201000701600081184A24A04680901020304062C
:102020000708090C6910051A020406081BF8880144
:102030002AFF0552F81B1F08012A7F10149F80F009
:102040003B8082016009E2A2928A8682808084407D
:10205000807F15404042CC1C40A09E24459EA0207D
:1020600020180B3F908840432C10284641304920CF
:1020700019012AFF054240347F201062FF1610101C
:10208000FF10102A90064AF05E12FF2E04824130A3
:102090000F641B01063B280C202050484443444851
:1020A00050202040000E230242E2524A4642424261
:1020B0005262C2021C8080C0785A20016C303030DD
:1020C0000B1A60176CC0C08001014D000C218040CC
:1020D0002010180C040602010100153D0101020246
:1020E00006040C091131214382020204040C38E079
:1020F0004CF0FC037619F611041020204008091357
:102100007C0C1C70701C0C7C8D0F3B020C1870CE6C
:1021100003FC85C14778301B0306115BC0608564F2
:10212000204080B2C0AC0818700F2985043A073CE3
:10213000E01D0103060401C80E0C1C3424242622D1
:1021400022234141C080015FC0404346587063581C
:1021500011808040301F1110302020206040C48842
:102160001045024EFFA00A0F0808080404020101EE
:102170001B0302019A0312198A6460311F5AFC087A
:1021800001612808020F1131216141012A80F852B2
:102190000203737FFF4F0103040C08100104261390
:0421A000161800000D
:04000005080000ED02
:00000001FF
